{
  "contractName": "MainContract",
  "abi": [
    {
      "anonymous": false,
      "inputs": [
        {
          "indexed": true,
          "name": "userAddress",
          "type": "address"
        },
        {
          "indexed": false,
          "name": "index",
          "type": "uint256"
        },
        {
          "indexed": false,
          "name": "userFullName",
          "type": "string"
        },
        {
          "indexed": false,
          "name": "userType",
          "type": "string"
        },
        {
          "indexed": false,
          "name": "userBrand",
          "type": "string"
        },
        {
          "indexed": false,
          "name": "userAge",
          "type": "uint256"
        }
      ],
      "name": "LogNewUser",
      "type": "event"
    },
    {
      "anonymous": false,
      "inputs": [
        {
          "indexed": true,
          "name": "userAddress",
          "type": "address"
        },
        {
          "indexed": false,
          "name": "index",
          "type": "uint256"
        },
        {
          "indexed": false,
          "name": "userFullName",
          "type": "string"
        },
        {
          "indexed": false,
          "name": "userType",
          "type": "string"
        },
        {
          "indexed": false,
          "name": "userBrand",
          "type": "string"
        },
        {
          "indexed": false,
          "name": "userAge",
          "type": "uint256"
        }
      ],
      "name": "LogUpdateUser",
      "type": "event"
    },
    {
      "anonymous": false,
      "inputs": [
        {
          "indexed": true,
          "name": "userAddress",
          "type": "address"
        },
        {
          "indexed": false,
          "name": "index",
          "type": "uint256"
        }
      ],
      "name": "LogDeleteUser",
      "type": "event"
    },
    {
      "constant": true,
      "inputs": [
        {
          "name": "userAddress",
          "type": "address"
        }
      ],
      "name": "isUser",
      "outputs": [
        {
          "name": "isIndeed",
          "type": "bool"
        }
      ],
      "payable": false,
      "stateMutability": "view",
      "type": "function"
    },
    {
      "constant": false,
      "inputs": [
        {
          "name": "userAddress",
          "type": "address"
        },
        {
          "name": "_userFullName",
          "type": "string"
        },
        {
          "name": "_userType",
          "type": "string"
        },
        {
          "name": "_userBrand",
          "type": "string"
        },
        {
          "name": "_userAge",
          "type": "uint256"
        }
      ],
      "name": "insertUser",
      "outputs": [
        {
          "name": "index",
          "type": "uint256"
        }
      ],
      "payable": false,
      "stateMutability": "nonpayable",
      "type": "function"
    },
    {
      "constant": true,
      "inputs": [
        {
          "name": "userAddress",
          "type": "address"
        }
      ],
      "name": "getUser",
      "outputs": [
        {
          "name": "userFullName",
          "type": "string"
        },
        {
          "name": "userType",
          "type": "string"
        },
        {
          "name": "userBrand",
          "type": "string"
        },
        {
          "name": "userAge",
          "type": "uint256"
        }
      ],
      "payable": false,
      "stateMutability": "view",
      "type": "function"
    },
    {
      "constant": false,
      "inputs": [
        {
          "name": "userAddress",
          "type": "address"
        },
        {
          "name": "_userFullName",
          "type": "string"
        }
      ],
      "name": "updateUserFullName",
      "outputs": [
        {
          "name": "success",
          "type": "bool"
        }
      ],
      "payable": false,
      "stateMutability": "nonpayable",
      "type": "function"
    },
    {
      "constant": false,
      "inputs": [
        {
          "name": "userAddress",
          "type": "address"
        },
        {
          "name": "_userType",
          "type": "string"
        }
      ],
      "name": "updateUserType",
      "outputs": [
        {
          "name": "success",
          "type": "bool"
        }
      ],
      "payable": false,
      "stateMutability": "nonpayable",
      "type": "function"
    },
    {
      "constant": false,
      "inputs": [
        {
          "name": "userAddress",
          "type": "address"
        },
        {
          "name": "_userBrand",
          "type": "string"
        }
      ],
      "name": "updateUserBrand",
      "outputs": [
        {
          "name": "success",
          "type": "bool"
        }
      ],
      "payable": false,
      "stateMutability": "nonpayable",
      "type": "function"
    },
    {
      "constant": false,
      "inputs": [
        {
          "name": "userAddress",
          "type": "address"
        },
        {
          "name": "_userAge",
          "type": "uint256"
        }
      ],
      "name": "updateUserAge",
      "outputs": [
        {
          "name": "success",
          "type": "bool"
        }
      ],
      "payable": false,
      "stateMutability": "nonpayable",
      "type": "function"
    },
    {
      "constant": true,
      "inputs": [],
      "name": "getUserCount",
      "outputs": [
        {
          "name": "count",
          "type": "uint256"
        }
      ],
      "payable": false,
      "stateMutability": "view",
      "type": "function"
    },
    {
      "constant": true,
      "inputs": [
        {
          "name": "index",
          "type": "uint256"
        }
      ],
      "name": "getUserAtIndex",
      "outputs": [
        {
          "name": "userAdress",
          "type": "address"
        }
      ],
      "payable": false,
      "stateMutability": "view",
      "type": "function"
    },
    {
      "constant": false,
      "inputs": [
        {
          "name": "userAddress",
          "type": "address"
        }
      ],
      "name": "deleteUser",
      "outputs": [
        {
          "name": "index",
          "type": "uint256"
        }
      ],
      "payable": false,
      "stateMutability": "nonpayable",
      "type": "function"
    },
    {
      "constant": true,
      "inputs": [
        {
          "name": "_productId",
          "type": "uint256"
        }
      ],
      "name": "isProduct",
      "outputs": [
        {
          "name": "isIndeed",
          "type": "bool"
        }
      ],
      "payable": false,
      "stateMutability": "view",
      "type": "function"
    },
    {
      "constant": false,
      "inputs": [
        {
          "name": "_productName",
          "type": "string"
        },
        {
          "name": "_productQuantity",
          "type": "uint256"
        }
      ],
      "name": "insertProduct",
      "outputs": [
        {
          "name": "index",
          "type": "uint256"
        }
      ],
      "payable": false,
      "stateMutability": "nonpayable",
      "type": "function"
    },
    {
      "constant": true,
      "inputs": [
        {
          "name": "_productId",
          "type": "uint256"
        }
      ],
      "name": "getProduct",
      "outputs": [
        {
          "name": "_productName",
          "type": "string"
        },
        {
          "name": "_productQuantity",
          "type": "uint256"
        },
        {
          "name": "_productManufacturer",
          "type": "address"
        },
        {
          "name": "_productOwnerBrand",
          "type": "string"
        }
      ],
      "payable": false,
      "stateMutability": "view",
      "type": "function"
    },
    {
      "constant": true,
      "inputs": [],
      "name": "getProductCount",
      "outputs": [
        {
          "name": "count",
          "type": "uint256"
        }
      ],
      "payable": false,
      "stateMutability": "view",
      "type": "function"
    },
    {
      "constant": true,
      "inputs": [
        {
          "name": "index",
          "type": "uint256"
        }
      ],
      "name": "getProductAtIndex",
      "outputs": [
        {
          "name": "productId",
          "type": "uint256"
        }
      ],
      "payable": false,
      "stateMutability": "view",
      "type": "function"
    },
    {
      "constant": false,
      "inputs": [
        {
          "name": "_productId",
          "type": "uint256"
        },
        {
          "name": "_receiver",
          "type": "address"
        },
        {
          "name": "_position",
          "type": "string"
        },
        {
          "name": "_time",
          "type": "string"
        },
        {
          "name": "_message",
          "type": "string"
        }
      ],
      "name": "addCheckPoint",
      "outputs": [
        {
          "name": "success",
          "type": "bool"
        }
      ],
      "payable": false,
      "stateMutability": "nonpayable",
      "type": "function"
    },
    {
      "constant": true,
      "inputs": [
        {
          "name": "_productId",
          "type": "uint256"
        },
        {
          "name": "index",
          "type": "uint256"
        }
      ],
      "name": "getPathAtIndex",
      "outputs": [
        {
          "name": "",
          "type": "address"
        },
        {
          "name": "",
          "type": "address"
        },
        {
          "name": "",
          "type": "string"
        },
        {
          "name": "",
          "type": "string"
        },
        {
          "name": "",
          "type": "string"
        }
      ],
      "payable": false,
      "stateMutability": "view",
      "type": "function"
    },
    {
      "constant": true,
      "inputs": [
        {
          "name": "userId",
          "type": "address"
        }
      ],
      "name": "getUserProducts",
      "outputs": [
        {
          "name": "",
          "type": "uint256[]"
        }
      ],
      "payable": false,
      "stateMutability": "view",
      "type": "function"
    }
  ],
  "bytecode": "0x608060405234801561001057600080fd5b506137c3806100206000396000f3006080604052600436106100fc576000357c0100000000000000000000000000000000000000000000000000000000900463ffffffff1680632095806f14610101578063291070a7146102385780632e071db31461036b5780633920200c146103d05780634209fff1146104155780634a348da9146104705780635c60f2261461049b578063627ef292146104f25780636f77926b14610579578063776059ec146107145780637b474bad146107555780637f3efdb5146107f6578063b5cb15f714610897578063b9db15b4146108c2578063c5a303d914610a0e578063e8c931e414610bfc578063fee7f53b14610c9d578063ffcc7bbf14610d35575b600080fd5b34801561010d57600080fd5b5061021e60048036038101908080359060200190929190803573ffffffffffffffffffffffffffffffffffffffff169060200190929190803590602001908201803590602001908080601f0160208091040260200160405190810160405280939291908181526020018383808284378201915050505050509192919290803590602001908201803590602001908080601f0160208091040260200160405190810160405280939291908181526020018383808284378201915050505050509192919290803590602001908201803590602001908080601f0160208091040260200160405190810160405280939291908181526020018383808284378201915050505050509192919290505050610da2565b604051808215151515815260200191505060405180910390f35b34801561024457600080fd5b50610355600480360381019080803573ffffffffffffffffffffffffffffffffffffffff169060200190929190803590602001908201803590602001908080601f0160208091040260200160405190810160405280939291908181526020018383808284378201915050505050509192919290803590602001908201803590602001908080601f0160208091040260200160405190810160405280939291908181526020018383808284378201915050505050509192919290803590602001908201803590602001908080601f016020809104026020016040519081016040528093929190818152602001838380828437820191505050505050919291929080359060200190929190505050611063565b6040518082815260200191505060405180910390f35b34801561037757600080fd5b506103b6600480360381019080803573ffffffffffffffffffffffffffffffffffffffff169060200190929190803590602001909291905050506113b3565b604051808215151515815260200191505060405180910390f35b3480156103dc57600080fd5b506103fb6004803603810190808035906020019092919050505061170e565b604051808215151515815260200191505060405180910390f35b34801561042157600080fd5b50610456600480360381019080803573ffffffffffffffffffffffffffffffffffffffff169060200190929190505050611760565b604051808215151515815260200191505060405180910390f35b34801561047c57600080fd5b50610485611829565b6040518082815260200191505060405180910390f35b3480156104a757600080fd5b506104dc600480360381019080803573ffffffffffffffffffffffffffffffffffffffff169060200190929190505050611836565b6040518082815260200191505060405180910390f35b3480156104fe57600080fd5b50610563600480360381019080803590602001908201803590602001908080601f016020809104026020016040519081016040528093929190818152602001838380828437820191505050505050919291929080359060200190929190505050611d17565b6040518082815260200191505060405180910390f35b34801561058557600080fd5b506105ba600480360381019080803573ffffffffffffffffffffffffffffffffffffffff169060200190929190505050612071565b60405180806020018060200180602001858152602001848103845288818151815260200191508051906020019080838360005b838110156106085780820151818401526020810190506105ed565b50505050905090810190601f1680156106355780820380516001836020036101000a031916815260200191505b50848103835287818151815260200191508051906020019080838360005b8381101561066e578082015181840152602081019050610653565b50505050905090810190601f16801561069b5780820380516001836020036101000a031916815260200191505b50848103825286818151815260200191508051906020019080838360005b838110156106d45780820151818401526020810190506106b9565b50505050905090810190601f1680156107015780820380516001836020036101000a031916815260200191505b5097505050505050505060405180910390f35b34801561072057600080fd5b5061073f60048036038101908080359060200190929190505050612374565b6040518082815260200191505060405180910390f35b34801561076157600080fd5b506107dc600480360381019080803573ffffffffffffffffffffffffffffffffffffffff169060200190929190803590602001908201803590602001908080601f0160208091040260200160405190810160405280939291908181526020018383808284378201915050505050509192919290505050612397565b604051808215151515815260200191505060405180910390f35b34801561080257600080fd5b5061087d600480360381019080803573ffffffffffffffffffffffffffffffffffffffff169060200190929190803590602001908201803590602001908080601f01602080910402602001604051908101604052809392919081815260200183838082843782019150505050505091929192905050506126e6565b604051808215151515815260200191505060405180910390f35b3480156108a357600080fd5b506108ac612a35565b6040518082815260200191505060405180910390f35b3480156108ce57600080fd5b506108ed60048036038101908080359060200190929190505050612a42565b60405180806020018581526020018473ffffffffffffffffffffffffffffffffffffffff1673ffffffffffffffffffffffffffffffffffffffff16815260200180602001838103835287818151815260200191508051906020019080838360005b8381101561096957808201518184015260208101905061094e565b50505050905090810190601f1680156109965780820380516001836020036101000a031916815260200191505b50838103825284818151815260200191508051906020019080838360005b838110156109cf5780820151818401526020810190506109b4565b50505050905090810190601f1680156109fc5780820380516001836020036101000a031916815260200191505b50965050505050505060405180910390f35b348015610a1a57600080fd5b50610a436004803603810190808035906020019092919080359060200190929190505050612c7f565b604051808673ffffffffffffffffffffffffffffffffffffffff1673ffffffffffffffffffffffffffffffffffffffff1681526020018573ffffffffffffffffffffffffffffffffffffffff1673ffffffffffffffffffffffffffffffffffffffff168152602001806020018060200180602001848103845287818151815260200191508051906020019080838360005b83811015610aef578082015181840152602081019050610ad4565b50505050905090810190601f168015610b1c5780820380516001836020036101000a031916815260200191505b50848103835286818151815260200191508051906020019080838360005b83811015610b55578082015181840152602081019050610b3a565b50505050905090810190601f168015610b825780820380516001836020036101000a031916815260200191505b50848103825285818151815260200191508051906020019080838360005b83811015610bbb578082015181840152602081019050610ba0565b50505050905090810190601f168015610be85780820380516001836020036101000a031916815260200191505b509850505050505050505060405180910390f35b348015610c0857600080fd5b50610c83600480360381019080803573ffffffffffffffffffffffffffffffffffffffff169060200190929190803590602001908201803590602001908080601f0160208091040260200160405190810160405280939291908181526020018383808284378201915050505050509192919290505050612f92565b604051808215151515815260200191505060405180910390f35b348015610ca957600080fd5b50610cde600480360381019080803573ffffffffffffffffffffffffffffffffffffffff1690602001909291905050506132e1565b6040518080602001828103825283818151815260200191508051906020019060200280838360005b83811015610d21578082015181840152602081019050610d06565b505050509050019250505060405180910390f35b348015610d4157600080fd5b50610d6060048036038101908080359060200190929190505050613462565b604051808273ffffffffffffffffffffffffffffffffffffffff1673ffffffffffffffffffffffffffffffffffffffff16815260200191505060405180910390f35b60006002600087815260200190815260200160002060020160009054906101000a900473ffffffffffffffffffffffffffffffffffffffff1673ffffffffffffffffffffffffffffffffffffffff163373ffffffffffffffffffffffffffffffffffffffff16141515610e1457600080fd5b600260008781526020019081526020016000206004013390806001815401808255809150509060018203906000526020600020016000909192909190916101000a81548173ffffffffffffffffffffffffffffffffffffffff021916908373ffffffffffffffffffffffffffffffffffffffff16021790555050600260008781526020019081526020016000206005018590806001815401808255809150509060018203906000526020600020016000909192909190916101000a81548173ffffffffffffffffffffffffffffffffffffffff021916908373ffffffffffffffffffffffffffffffffffffffff1602179055505060026000878152602001908152602001600020600601849080600181540180825580915050906001820390600052602060002001600090919290919091509080519060200190610f599291906134a5565b505060026000878152602001908152602001600020600701839080600181540180825580915050906001820390600052602060002001600090919290919091509080519060200190610fac9291906134a5565b505060026000878152602001908152602001600020600801829080600181540180825580915050906001820390600052602060002001600090919290919091509080519060200190610fff9291906134a5565b5050846002600088815260200190815260200160002060020160006101000a81548173ffffffffffffffffffffffffffffffffffffffff021916908373ffffffffffffffffffffffffffffffffffffffff1602179055506001905095945050505050565b600061106e86611760565b15151561107a57600080fd5b846000808873ffffffffffffffffffffffffffffffffffffffff1673ffffffffffffffffffffffffffffffffffffffff16815260200190815260200160002060000190805190602001906110cf9291906134a5565b50816000808873ffffffffffffffffffffffffffffffffffffffff1673ffffffffffffffffffffffffffffffffffffffff168152602001908152602001600020600301819055506001808790806001815401808255809150509060018203906000526020600020016000909192909190916101000a81548173ffffffffffffffffffffffffffffffffffffffff021916908373ffffffffffffffffffffffffffffffffffffffff160217905550036000808873ffffffffffffffffffffffffffffffffffffffff1673ffffffffffffffffffffffffffffffffffffffff168152602001908152602001600020600401819055508573ffffffffffffffffffffffffffffffffffffffff167f1dec9c389ad8b1b4d012bc24d02cb2d54cf773c914a13ebfae44135a28af28b26000808973ffffffffffffffffffffffffffffffffffffffff1673ffffffffffffffffffffffffffffffffffffffff168152602001908152602001600020600401548787878760405180868152602001806020018060200180602001858152602001848103845288818151815260200191508051906020019080838360005b83811015611294578082015181840152602081019050611279565b50505050905090810190601f1680156112c15780820380516001836020036101000a031916815260200191505b50848103835287818151815260200191508051906020019080838360005b838110156112fa5780820151818401526020810190506112df565b50505050905090810190601f1680156113275780820380516001836020036101000a031916815260200191505b50848103825286818151815260200191508051906020019080838360005b83811015611360578082015181840152602081019050611345565b50505050905090810190601f16801561138d5780820380516001836020036101000a031916815260200191505b509850505050505050505060405180910390a26001808054905003905095945050505050565b60006113be83611760565b15156113c957600080fd5b816000808573ffffffffffffffffffffffffffffffffffffffff1673ffffffffffffffffffffffffffffffffffffffff168152602001908152602001600020600301819055508273ffffffffffffffffffffffffffffffffffffffff167f120b81bff87a103db25f478f9838f6c78d30aaccd4fc343961a14962f755f68b6000808673ffffffffffffffffffffffffffffffffffffffff1673ffffffffffffffffffffffffffffffffffffffff168152602001908152602001600020600401546000808773ffffffffffffffffffffffffffffffffffffffff1673ffffffffffffffffffffffffffffffffffffffff1681526020019081526020016000206000016000808873ffffffffffffffffffffffffffffffffffffffff1673ffffffffffffffffffffffffffffffffffffffff1681526020019081526020016000206001016000808973ffffffffffffffffffffffffffffffffffffffff1673ffffffffffffffffffffffffffffffffffffffff16815260200190815260200160002060020187604051808681526020018060200180602001806020018581526020018481038452888181546001816001161561010002031660029004815260200191508054600181600116156101000203166002900480156115ea5780601f106115bf576101008083540402835291602001916115ea565b820191906000526020600020905b8154815290600101906020018083116115cd57829003601f168201915b505084810383528781815460018160011615610100020316600290048152602001915080546001816001161561010002031660029004801561166d5780601f106116425761010080835404028352916020019161166d565b820191906000526020600020905b81548152906001019060200180831161165057829003601f168201915b50508481038252868181546001816001161561010002031660029004815260200191508054600181600116156101000203166002900480156116f05780601f106116c5576101008083540402835291602001916116f0565b820191906000526020600020905b8154815290600101906020018083116116d357829003601f168201915b50509850505050505050505060405180910390a26001905092915050565b6000806003805490501415611726576000905061175b565b816003600260008581526020019081526020016000206009015481548110151561174c57fe5b90600052602060002001541490505b919050565b60008060018054905014156117785760009050611824565b8173ffffffffffffffffffffffffffffffffffffffff1660016000808573ffffffffffffffffffffffffffffffffffffffff1673ffffffffffffffffffffffffffffffffffffffff168152602001908152602001600020600401548154811015156117df57fe5b9060005260206000200160009054906101000a900473ffffffffffffffffffffffffffffffffffffffff1673ffffffffffffffffffffffffffffffffffffffff161490505b919050565b6000600380549050905090565b600080600061184484611760565b151561184f57600080fd5b6000808573ffffffffffffffffffffffffffffffffffffffff1673ffffffffffffffffffffffffffffffffffffffff1681526020019081526020016000206004015491506001808080549050038154811015156118a857fe5b9060005260206000200160009054906101000a900473ffffffffffffffffffffffffffffffffffffffff169050806001838154811015156118e557fe5b9060005260206000200160006101000a81548173ffffffffffffffffffffffffffffffffffffffff021916908373ffffffffffffffffffffffffffffffffffffffff160217905550816000808373ffffffffffffffffffffffffffffffffffffffff1673ffffffffffffffffffffffffffffffffffffffff1681526020019081526020016000206004018190555060018054809190600190036119889190613525565b508373ffffffffffffffffffffffffffffffffffffffff167f9a67af531bfbfd34f63109e83cfab08e30f92a1827d5c3f50e8fa815469ff9f2836040518082815260200191505060405180910390a28373ffffffffffffffffffffffffffffffffffffffff167f120b81bff87a103db25f478f9838f6c78d30aaccd4fc343961a14962f755f68b6000808773ffffffffffffffffffffffffffffffffffffffff1673ffffffffffffffffffffffffffffffffffffffff168152602001908152602001600020600401546000808873ffffffffffffffffffffffffffffffffffffffff1673ffffffffffffffffffffffffffffffffffffffff1681526020019081526020016000206000016000808973ffffffffffffffffffffffffffffffffffffffff1673ffffffffffffffffffffffffffffffffffffffff1681526020019081526020016000206001016000808a73ffffffffffffffffffffffffffffffffffffffff1673ffffffffffffffffffffffffffffffffffffffff1681526020019081526020016000206002016000808b73ffffffffffffffffffffffffffffffffffffffff1673ffffffffffffffffffffffffffffffffffffffff1681526020019081526020016000206003015460405180868152602001806020018060200180602001858152602001848103845288818154600181600116156101000203166002900481526020019150805460018160011615610100020316600290048015611bf35780601f10611bc857610100808354040283529160200191611bf3565b820191906000526020600020905b815481529060010190602001808311611bd657829003601f168201915b5050848103835287818154600181600116156101000203166002900481526020019150805460018160011615610100020316600290048015611c765780601f10611c4b57610100808354040283529160200191611c76565b820191906000526020600020905b815481529060010190602001808311611c5957829003601f168201915b5050848103825286818154600181600116156101000203166002900481526020019150805460018160011615610100020316600290048015611cf95780601f10611cce57610100808354040283529160200191611cf9565b820191906000526020600020905b815481529060010190602001808311611cdc57829003601f168201915b50509850505050505050505060405180910390a28192505050919050565b6000611d2460045461170e565b151515611d3057600080fd5b826002600060045481526020019081526020016000206000019080519060200190611d5c9291906134a5565b503360026000600454815260200190815260200160002060020160006101000a81548173ffffffffffffffffffffffffffffffffffffffff021916908373ffffffffffffffffffffffffffffffffffffffff1602179055503360026000600454815260200190815260200160002060010160006101000a81548173ffffffffffffffffffffffffffffffffffffffff021916908373ffffffffffffffffffffffffffffffffffffffff16021790555081600260006004548152602001908152602001600020600301819055506010604051908082528060200260200182016040528015611e585781602001602082028038833980820191505090505b506002600060045481526020019081526020016000206004019080519060200190611e84929190613551565b506010604051908082528060200260200182016040528015611eb55781602001602082028038833980820191505090505b506002600060045481526020019081526020016000206005019080519060200190611ee1929190613551565b506010604051908082528060200260200182016040528015611f1757816020015b6060815260200190600190039081611f025790505b506002600060045481526020019081526020016000206006019080519060200190611f439291906135db565b506010604051908082528060200260200182016040528015611f7957816020015b6060815260200190600190039081611f645790505b506002600060045481526020019081526020016000206007019080519060200190611fa59291906135db565b506010604051908082528060200260200182016040528015611fdb57816020015b6060815260200190600190039081611fc65790505b5060026000600454815260200190815260200160002060080190805190602001906120079291906135db565b5060016003600454908060018154018082558091505090600182039060005260206000200160009091929091909150550360026000600454815260200190815260200160002060090181905550600160045401600481905550600160038054905003905092915050565b6060806060600061208185611760565b151561208c57600080fd5b6000808673ffffffffffffffffffffffffffffffffffffffff1673ffffffffffffffffffffffffffffffffffffffff1681526020019081526020016000206000016000808773ffffffffffffffffffffffffffffffffffffffff1673ffffffffffffffffffffffffffffffffffffffff1681526020019081526020016000206001016000808873ffffffffffffffffffffffffffffffffffffffff1673ffffffffffffffffffffffffffffffffffffffff1681526020019081526020016000206002016000808973ffffffffffffffffffffffffffffffffffffffff1673ffffffffffffffffffffffffffffffffffffffff16815260200190815260200160002060030154838054600181600116156101000203166002900480601f0160208091040260200160405190810160405280929190818152602001828054600181600116156101000203166002900480156122265780601f106121fb57610100808354040283529160200191612226565b820191906000526020600020905b81548152906001019060200180831161220957829003601f168201915b50505050509350828054600181600116156101000203166002900480601f0160208091040260200160405190810160405280929190818152602001828054600181600116156101000203166002900480156122c25780601f10612297576101008083540402835291602001916122c2565b820191906000526020600020905b8154815290600101906020018083116122a557829003601f168201915b50505050509250818054600181600116156101000203166002900480601f01602080910402602001604051908101604052809291908181526020018280546001816001161561010002031660029004801561235e5780601f106123335761010080835404028352916020019161235e565b820191906000526020600020905b81548152906001019060200180831161234157829003601f168201915b5050505050915093509350935093509193509193565b600060038281548110151561238557fe5b90600052602060002001549050919050565b60006123a283611760565b15156123ad57600080fd5b816000808573ffffffffffffffffffffffffffffffffffffffff1673ffffffffffffffffffffffffffffffffffffffff16815260200190815260200160002060020190805190602001906124029291906134a5565b508273ffffffffffffffffffffffffffffffffffffffff167f120b81bff87a103db25f478f9838f6c78d30aaccd4fc343961a14962f755f68b6000808673ffffffffffffffffffffffffffffffffffffffff1673ffffffffffffffffffffffffffffffffffffffff168152602001908152602001600020600401546000808773ffffffffffffffffffffffffffffffffffffffff1673ffffffffffffffffffffffffffffffffffffffff1681526020019081526020016000206000016000808873ffffffffffffffffffffffffffffffffffffffff1673ffffffffffffffffffffffffffffffffffffffff168152602001908152602001600020600101866000808a73ffffffffffffffffffffffffffffffffffffffff1673ffffffffffffffffffffffffffffffffffffffff16815260200190815260200160002060030154604051808681526020018060200180602001806020018581526020018481038452888181546001816001161561010002031660029004815260200191508054600181600116156101000203166002900480156125df5780601f106125b4576101008083540402835291602001916125df565b820191906000526020600020905b8154815290600101906020018083116125c257829003601f168201915b50508481038352878181546001816001161561010002031660029004815260200191508054600181600116156101000203166002900480156126625780601f1061263757610100808354040283529160200191612662565b820191906000526020600020905b81548152906001019060200180831161264557829003601f168201915b5050848103825286818151815260200191508051906020019080838360005b8381101561269c578082015181840152602081019050612681565b50505050905090810190601f1680156126c95780820380516001836020036101000a031916815260200191505b509850505050505050505060405180910390a26001905092915050565b60006126f183611760565b15156126fc57600080fd5b816000808573ffffffffffffffffffffffffffffffffffffffff1673ffffffffffffffffffffffffffffffffffffffff16815260200190815260200160002060010190805190602001906127519291906134a5565b508273ffffffffffffffffffffffffffffffffffffffff167f120b81bff87a103db25f478f9838f6c78d30aaccd4fc343961a14962f755f68b6000808673ffffffffffffffffffffffffffffffffffffffff1673ffffffffffffffffffffffffffffffffffffffff168152602001908152602001600020600401546000808773ffffffffffffffffffffffffffffffffffffffff1673ffffffffffffffffffffffffffffffffffffffff168152602001908152602001600020600001856000808973ffffffffffffffffffffffffffffffffffffffff1673ffffffffffffffffffffffffffffffffffffffff1681526020019081526020016000206002016000808a73ffffffffffffffffffffffffffffffffffffffff1673ffffffffffffffffffffffffffffffffffffffff168152602001908152602001600020600301546040518086815260200180602001806020018060200185815260200184810384528881815460018160011615610100020316600290048152602001915080546001816001161561010002031660029004801561292e5780601f106129035761010080835404028352916020019161292e565b820191906000526020600020905b81548152906001019060200180831161291157829003601f168201915b5050848103835287818151815260200191508051906020019080838360005b8381101561296857808201518184015260208101905061294d565b50505050905090810190601f1680156129955780820380516001836020036101000a031916815260200191505b50848103825286818154600181600116156101000203166002900481526020019150805460018160011615610100020316600290048015612a175780601f106129ec57610100808354040283529160200191612a17565b820191906000526020600020905b8154815290600101906020018083116129fa57829003601f168201915b50509850505050505050505060405180910390a26001905092915050565b6000600180549050905090565b60606000806060612a528561170e565b1515612a5d57600080fd5b6002600086815260200190815260200160002060000160026000878152602001908152602001600020600301546002600088815260200190815260200160002060010160009054906101000a900473ffffffffffffffffffffffffffffffffffffffff16600080600260008b815260200190815260200160002060020160009054906101000a900473ffffffffffffffffffffffffffffffffffffffff1673ffffffffffffffffffffffffffffffffffffffff1673ffffffffffffffffffffffffffffffffffffffff168152602001908152602001600020600201838054600181600116156101000203166002900480601f016020809104026020016040519081016040528092919081815260200182805460018160011615610100020316600290048015612bcd5780601f10612ba257610100808354040283529160200191612bcd565b820191906000526020600020905b815481529060010190602001808311612bb057829003601f168201915b50505050509350808054600181600116156101000203166002900480601f016020809104026020016040519081016040528092919081815260200182805460018160011615610100020316600290048015612c695780601f10612c3e57610100808354040283529160200191612c69565b820191906000526020600020905b815481529060010190602001808311612c4c57829003601f168201915b5050505050905093509350935093509193509193565b60008060608060606002600088815260200190815260200160002060040186815481101515612caa57fe5b9060005260206000200160009054906101000a900473ffffffffffffffffffffffffffffffffffffffff166002600089815260200190815260200160002060050187815481101515612cf857fe5b9060005260206000200160009054906101000a900473ffffffffffffffffffffffffffffffffffffffff16600260008a815260200190815260200160002060060188815481101515612d4657fe5b90600052602060002001600260008b815260200190815260200160002060070189815481101515612d7357fe5b90600052602060002001600260008c81526020019081526020016000206008018a815481101515612da057fe5b90600052602060002001828054600181600116156101000203166002900480601f016020809104026020016040519081016040528092919081815260200182805460018160011615610100020316600290048015612e3f5780601f10612e1457610100808354040283529160200191612e3f565b820191906000526020600020905b815481529060010190602001808311612e2257829003601f168201915b50505050509250818054600181600116156101000203166002900480601f016020809104026020016040519081016040528092919081815260200182805460018160011615610100020316600290048015612edb5780601f10612eb057610100808354040283529160200191612edb565b820191906000526020600020905b815481529060010190602001808311612ebe57829003601f168201915b50505050509150808054600181600116156101000203166002900480601f016020809104026020016040519081016040528092919081815260200182805460018160011615610100020316600290048015612f775780601f10612f4c57610100808354040283529160200191612f77565b820191906000526020600020905b815481529060010190602001808311612f5a57829003601f168201915b50505050509050945094509450945094509295509295909350565b6000612f9d83611760565b1515612fa857600080fd5b816000808573ffffffffffffffffffffffffffffffffffffffff1673ffffffffffffffffffffffffffffffffffffffff1681526020019081526020016000206000019080519060200190612ffd9291906134a5565b508273ffffffffffffffffffffffffffffffffffffffff167f120b81bff87a103db25f478f9838f6c78d30aaccd4fc343961a14962f755f68b6000808673ffffffffffffffffffffffffffffffffffffffff1673ffffffffffffffffffffffffffffffffffffffff16815260200190815260200160002060040154846000808873ffffffffffffffffffffffffffffffffffffffff1673ffffffffffffffffffffffffffffffffffffffff1681526020019081526020016000206001016000808973ffffffffffffffffffffffffffffffffffffffff1673ffffffffffffffffffffffffffffffffffffffff1681526020019081526020016000206002016000808a73ffffffffffffffffffffffffffffffffffffffff1673ffffffffffffffffffffffffffffffffffffffff1681526020019081526020016000206003015460405180868152602001806020018060200180602001858152602001848103845288818151815260200191508051906020019080838360005b83811015613191578082015181840152602081019050613176565b50505050905090810190601f1680156131be5780820380516001836020036101000a031916815260200191505b508481038352878181546001816001161561010002031660029004815260200191508054600181600116156101000203166002900480156132405780601f1061321557610100808354040283529160200191613240565b820191906000526020600020905b81548152906001019060200180831161322357829003601f168201915b50508481038252868181546001816001161561010002031660029004815260200191508054600181600116156101000203166002900480156132c35780601f10613298576101008083540402835291602001916132c3565b820191906000526020600020905b8154815290600101906020018083116132a657829003601f168201915b50509850505050505050505060405180910390a26001905092915050565b6060600080606060008092505b6003805490508310156133d0578573ffffffffffffffffffffffffffffffffffffffff166002600060038681548110151561332557fe5b9060005260206000200154815260200190815260200160002060020160009054906101000a900473ffffffffffffffffffffffffffffffffffffffff1673ffffffffffffffffffffffffffffffffffffffff1614156133c3578360038481548110151561338e57fe5b906000526020600020015490806001815401808255809150509060018203906000526020600020016000909192909190915055505b82806001019350506132ee565b83805490506040519080825280602002602001820160405280156134035781602001602082028038833980820191505090505b509150600090505b815181101561345657838181548110151561342257fe5b9060005260206000200154828281518110151561343b57fe5b9060200190602002018181525050808060010191505061340b565b81945050505050919050565b600060018281548110151561347357fe5b9060005260206000200160009054906101000a900473ffffffffffffffffffffffffffffffffffffffff169050919050565b828054600181600116156101000203166002900490600052602060002090601f016020900481019282601f106134e657805160ff1916838001178555613514565b82800160010185558215613514579182015b828111156135135782518255916020019190600101906134f8565b5b509050613521919061363b565b5090565b81548183558181111561354c5781836000526020600020918201910161354b919061363b565b5b505050565b8280548282559060005260206000209081019282156135ca579160200282015b828111156135c95782518260006101000a81548173ffffffffffffffffffffffffffffffffffffffff021916908373ffffffffffffffffffffffffffffffffffffffff16021790555091602001919060010190613571565b5b5090506135d79190613660565b5090565b82805482825590600052602060002090810192821561362a579160200282015b828111156136295782518290805190602001906136199291906136a3565b50916020019190600101906135fb565b5b5090506136379190613723565b5090565b61365d91905b80821115613659576000816000905550600101613641565b5090565b90565b6136a091905b8082111561369c57600081816101000a81549073ffffffffffffffffffffffffffffffffffffffff021916905550600101613666565b5090565b90565b828054600181600116156101000203166002900490600052602060002090601f016020900481019282601f106136e457805160ff1916838001178555613712565b82800160010185558215613712579182015b828111156137115782518255916020019190600101906136f6565b5b50905061371f919061363b565b5090565b61374c91905b80821115613748576000818161373f919061374f565b50600101613729565b5090565b90565b50805460018160011615610100020316600290046000825580601f106137755750613794565b601f016020900490600052602060002090810190613793919061363b565b5b505600a165627a7a723058200ddb60996b71d7bd84501705b22ffc301bca830105aa1be50c3ca4207319b9e00029",
  "source": "pragma solidity ^0.4.18;\r\n\r\ncontract MainContract {\r\n\r\n    // Users part\r\n    struct userStruct {\r\n        string userFullName;\r\n        string userType;\r\n        string userBrand ;\r\n        uint userAge;\r\n        uint index ;\r\n    }\r\n\r\n    mapping (address => userStruct) private userStructs ;\r\n    address[] private userList;\r\n\r\n    event LogNewUser   (address indexed userAddress, uint index, string userFullName, string userType, string userBrand, uint userAge);\r\n    event LogUpdateUser(address indexed userAddress, uint index, string userFullName, string userType, string userBrand, uint userAge);\r\n    event LogDeleteUser(address indexed userAddress, uint index);\r\n\r\n\r\n    function isUser(address userAddress) public view returns(bool isIndeed) {\r\n        if (userList.length == 0) {\r\n            return false;\r\n        } \r\n        return (userList[userStructs[userAddress].index] == userAddress);\r\n    }\r\n\r\n\r\n    function insertUser(address userAddress, string _userFullName, string _userType, string _userBrand, uint _userAge) public returns(uint index) {\r\n        require(!isUser(userAddress)); \r\n        userStructs[userAddress].userFullName = _userFullName;\r\n        userStructs[userAddress].userAge = _userAge;\r\n        userStructs[userAddress].index = userList.push(userAddress)-1;\r\n        LogNewUser(userAddress, userStructs[userAddress].index, _userFullName, _userType, _userBrand, _userAge);\r\n        return userList.length-1;\r\n    }\r\n\r\n    function getUser(address userAddress) public view returns (string userFullName, string userType, string userBrand, uint userAge) {\r\n        require(isUser(userAddress));\r\n        return (userStructs[userAddress].userFullName, userStructs[userAddress].userType, userStructs[userAddress].userBrand, userStructs[userAddress].userAge) ;\r\n    }\r\n\r\n\r\n    function updateUserFullName(address userAddress, string _userFullName) public returns(bool success) {\r\n        require(isUser(userAddress)); \r\n        userStructs[userAddress].userFullName = _userFullName;\r\n        LogUpdateUser(userAddress, userStructs[userAddress].index, _userFullName, userStructs[userAddress].userType, userStructs[userAddress].userBrand, userStructs[userAddress].userAge);\r\n        return true;\r\n    }\r\n\r\n    function updateUserType(address userAddress, string _userType) public returns(bool success) {\r\n        require(isUser(userAddress)); \r\n        userStructs[userAddress].userType = _userType;\r\n        LogUpdateUser(userAddress, userStructs[userAddress].index, userStructs[userAddress].userFullName, _userType, userStructs[userAddress].userBrand, userStructs[userAddress].userAge);\r\n        return true;\r\n    }\r\n\r\n    function updateUserBrand(address userAddress, string _userBrand) public returns(bool success) {\r\n        require(isUser(userAddress)); \r\n        userStructs[userAddress].userBrand = _userBrand;\r\n        LogUpdateUser(userAddress, userStructs[userAddress].index, userStructs[userAddress].userFullName, userStructs[userAddress].userType, _userBrand, userStructs[userAddress].userAge);\r\n        return true;\r\n    }\r\n\r\n    function updateUserAge(address userAddress, uint _userAge) public returns(bool success) {\r\n        require(isUser(userAddress)); \r\n        userStructs[userAddress].userAge = _userAge;\r\n        LogUpdateUser(userAddress, userStructs[userAddress].index, userStructs[userAddress].userFullName, userStructs[userAddress].userType, userStructs[userAddress].userBrand, _userAge);\r\n        return true;\r\n    }\r\n\r\n    function getUserCount() public view returns(uint count) {\r\n        return userList.length ;\r\n    }\r\n\r\n    function getUserAtIndex(uint index) public view returns(address userAdress) {\r\n        return userList[index] ;\r\n    }\r\n\r\n    function deleteUser(address userAddress) public returns(uint index) {\r\n        require(isUser(userAddress)); \r\n        uint rowToDelete = userStructs[userAddress].index;\r\n        address keyToMove = userList[userList.length-1];\r\n        userList[rowToDelete] = keyToMove;\r\n        userStructs[keyToMove].index = rowToDelete; \r\n        userList.length--;\r\n        LogDeleteUser(userAddress, rowToDelete);\r\n        LogUpdateUser(userAddress, userStructs[userAddress].index, userStructs[userAddress].userFullName, userStructs[userAddress].userType, userStructs[userAddress].userBrand, userStructs[userAddress].userAge);\r\n        return rowToDelete;\r\n    }\r\n\r\n\r\n\r\n\r\n\r\n\r\n\r\n\r\n\r\n\r\n\r\n\r\n\r\n\r\n    // Products part\r\n\r\n\r\n\r\n    // struct Action {\r\n    //     address from;\r\n    //     address to;\r\n    //     string position;\r\n    //     string time;\r\n    //     string message;\r\n    // }\r\n\r\n    struct Product {\r\n        string productName;\r\n        address productManufacturer;\r\n        address productOwner;\r\n        uint productQuantity;\r\n        address[] fromPath;\r\n        address[] toPath;\r\n        string[] positionPath;\r\n        string[] timePath;\r\n        string[] messagePath;\r\n        uint index;\r\n    }\r\n\r\n    mapping (uint => Product) private productStructs; //information about the products\r\n    uint[] private productList; // the products' ids\r\n    uint private productCount ; // to keep track of the products ids\r\n\r\n    function isProduct(uint _productId) public view returns(bool isIndeed) {\r\n        if (productList.length == 0) {\r\n            return false;\r\n        } \r\n        return (productList[productStructs[_productId].index] == _productId);\r\n    }\r\n\r\n    function insertProduct(string _productName, uint _productQuantity) public returns(uint index) {\r\n        require(!isProduct(productCount)); \r\n        productStructs[productCount].productName = _productName;\r\n        productStructs[productCount].productOwner = msg.sender;\r\n        productStructs[productCount].productManufacturer = msg.sender;\r\n        productStructs[productCount].productQuantity = _productQuantity;\r\n        productStructs[productCount].fromPath = new address[](16);\r\n        productStructs[productCount].toPath = new address[](16);\r\n        productStructs[productCount].positionPath = new string[](16);\r\n        productStructs[productCount].timePath = new string[](16);\r\n        productStructs[productCount].messagePath = new string[](16);\r\n        productStructs[productCount].index = productList.push(productCount)-1;\r\n        productCount = productCount + 1;\r\n        //LogNewUser(userAddress, userStructs[userAddress].index, _userFullName, _userType, _userBrand, _userAge);\r\n        return productList.length-1;\r\n    }\r\n\r\n    function getProduct(uint _productId) public view returns (string _productName, uint _productQuantity, address _productManufacturer, string _productOwnerBrand) {\r\n        require(isProduct(_productId));\r\n        return (productStructs[_productId].productName, productStructs[_productId].productQuantity, productStructs[_productId].productManufacturer, userStructs[productStructs[_productId].productOwner].userBrand) ;\r\n    }\r\n\r\n    function getProductCount() public view returns(uint count) {\r\n        return productList.length ;\r\n    }\r\n\r\n    function getProductAtIndex(uint index) public view returns(uint productId) {\r\n        return productList[index] ;\r\n    }\r\n    \r\n    function addCheckPoint(uint _productId, address _receiver, string _position, string _time, string _message) public returns(bool success) {\r\n        require(msg.sender == productStructs[_productId].productOwner);\r\n        productStructs[_productId].fromPath.push(msg.sender);\r\n        productStructs[_productId].toPath.push(_receiver);\r\n        productStructs[_productId].positionPath.push(_position);\r\n        productStructs[_productId].timePath.push(_time);\r\n        productStructs[_productId].messagePath.push(_message);\r\n        productStructs[_productId].productOwner = _receiver;\r\n        return true;\r\n    }\r\n\r\n    // function getPath(uint _productId) public view returns (Action[]) {\r\n    //     uint length = productStructs[_productId].path.length;\r\n    //     Action[] memory path = new Action[](16);\r\n    //     for (uint i = 0; i < length; i++) {\r\n    //         path[i] = productStructs[_productId].path[i];\r\n    //     }\r\n    //     return path;\r\n    // }\r\n    \r\n    function getPathAtIndex(uint _productId, uint index) public view returns(address, address, string, string, string) {\r\n        return (productStructs[_productId].fromPath[index], productStructs[_productId].toPath[index], productStructs[_productId].positionPath[index], productStructs[_productId].timePath[index], productStructs[_productId].messagePath[index]);\r\n    }\r\n\r\n    function getUserProducts(address userId) public view returns(uint[]) {\r\n        uint[] results;\r\n        for(uint i = 0; i<productList.length;i++){\r\n            if(productStructs[productList[i]].productOwner == userId){\r\n                results.push(productList[i]);\r\n            }\r\n        }\r\n        uint[] memory staticArray = new uint[] (results.length);\r\n        for(uint j = 0; j < staticArray.length;j++ ){\r\n              staticArray[j] = results[j];\r\n        }\r\n        \r\n        return staticArray;\r\n    }\r\n\r\n}",
  "sourcePath": "F:\\ProjectsDirectory\\BlockchainProjects\\hack_blockchain_project\\contracts\\MainContract.sol",
  "compiler": {
    "name": "solc",
    "version": "0.4.24+commit.e67f0147.Emscripten.clang"
  },
  "schemaVersion": "2.0.1",
  "updatedAt": "2018-06-27T20:10:55.318Z"
}